:040000006F00805CB1
:1000040000000000000000002002000022020000A6
:1000140000000000C6050000000000000000000011
:10002400C6050000C6050000000000000000000036
:10003400C605000000000000C60500000000000026
:10004400C6050000C6050000C6050000C605000080
:10005400C6050000C6050000C6050000C605000070
:10006400C6050000C6050000C6050000C605000060
:10007400C6050000C6050000C6050000C605000050
:10008400C6050000C6050000C6050000C605000040
:10009400C6050000C6050000C6050000C605000030
:1000A400C6050000C6050000C6050000C605000020
:1000B400C6050000C6050000C6050000C605000010
:1000C400C6050000C6050000C6050000C605000000
:1000D400C6050000C6050000C6050000C6050000F0
:1000E400C6050000C6050000C6050000C6050000E0
:1000F400C6050000C6050000C6050000C6050000D0
:1001040000000000C6050000C6050000C60500008A
:10011400C6050000C6050000C6050000C6050000AF
:10012400C6050000C6050000C6050000C60500009F
:10013400C6050000C6050000C6050000C60500008F
:10014400C6050000C6050000C6050000C60500007F
:10015400C6050000C6050000C6050000C60500006F
:10016400C6050000C6050000C6050000C60500005F
:10017400C6050000C6050000C6050000C60500004F
:10018400C6050000C6050000C6050000C60500003F
:10019400C6050000C6050000C6050000C60500002F
:1001A400000000000000000000000000000000004B
:0C01B4000000000000000000000000003F
:1001C000397101436EC619A0397141536AC866CAB4
:1001D00062CC5ECE19A0397101535AD056D252D496
:1001E0004ED64AD826DA22DC06DE3301614082820E
:1001F00041114AC026C222C406C68282B24D4101C4
:10020000024D924C224CB24B4101024B924A224A7F
:10021000B2494101024992442244B24041018280E4
:1002200001A0B707EFBE37E700E0938707083CC798
:1002300001A0EFF2FFFB411185452145A92D89471A
:10024000371401407C82C1473EC64C008D471305E0
:1002500004C03EC4FD2E8945130504C05D2941013B
:1002600055BFEFF2FFF811650111854511052525F0
:10027000930700207C82371401408D473EC44C0018
:10028000E147130504803EC6E926930700407C82BF
:100290004C009147130504803EC6652EF167374434
:1002A0000140938707203EC80C08B7070C001305D0
:1002B00004803ECC02CA231E0100ED2B85451305A8
:1002C000048041250561B9B7EFF29FF23744014040
:1002D00093040480930500022685792565DD1305C6
:1002E0000480BD2D1375F50F35B7EFF27FF037445D
:1002F0000140AA84130404808385040091E119BF9E
:10030000C205C18122858504812D930500082285BF
:10031000A12D65DDD5B7EFF21FEC41110945F52E92
:10032000A52A013F3D3F371500001305853D753F68
:10033000371500001305C541371401407D37B71943
:100340000000371A0000B71A0000130404C0371960
:100350000000371B00008D3FAA8413854943713785
:10036000268693054A444800052D4800BD3F138565
:100370000A43A53F9307A00A6399F40022858945A3
:10038000592E13058B449537F9B79307B00BE394B7
:10039000F4FC22858945B52E13058945EDB7B717BD
:1003A00002409843B706FFF041111367170098C346
:1003B000D84337060200758FD8C39843B706F7FEB7
:1003C000FD16758F98C39843B706FCFFFD16758F11
:1003D00098C3D843B70601FFFD16758FD8C398435D
:1003E000B70600ECFD16758F98C33707FF0098C756
:1003F00023A6070202C402C69843C166558F98C35C
:10040000B716024005679C42F18F3EC6A24785079A
:100410003EC4B24781E7A247E397E7FEB717024021
:100420009C431397E7006357070685473EC632474C
:100430008547631FF704B7170240D843B706C1FFCB
:10044000FD16D8C3D843D8C3D84313670740D8C3D1
:10045000D843758FD8C3D843B7062900558FD8C362
:100460009843B7060001558F98C3984393166700C9
:10047000E3DD06FED843B7160240719BD8C3D843CC
:1004800013672700D8C32147DC42B18BE39EE7FE08
:100490004101828002C661BFB7160240D842B70749
:1004A00000201146318B938707086305C70021465A
:1004B0006308C70237177A001307072098C3371756
:1004C0000240584311839376F70037070020130743
:1004D00007003697142398433357D70098C3828078
:1004E000D842D442416649833D8BF18E13062700E2
:1004F00015CF3D47630FE6024147630FE6024547CC
:1005000081456313E6004146A1E2374702400327D5
:100510000780418B0DC737177A0013070720330672
:10052000C70290C3C9DD9843058349BF8145494649
:10053000E1BF85453546C9BF81453D46F1B737170F
:100540003D0013070790E1BF371502405855931639
:10055000F700585563DF060411833D8B930617009F
:1005600037177A00130707203357D70298C354551B
:10057000A182BD8A8DE295463307D702058398C3D1
:1005800037170240585794433D8B050733D7E6028F
:1005900098C3984369B705456394A600E546E9BF4B
:1005A0003D456396A600D1463387E602C9BF89065A
:1005B000E5BF3D8B9306170037177A001307072016
:1005C0003357D702F1B701A0970100209381812B07
:1005D00017810020130101A317150000130505ED75
:1005E00097050020938505A21386018163FAC50053
:1005F0008322050023A0550011059105E3EAC5FEFD
:1006000013850181938501826377B500232005005E
:100610001105E36DB5FEFD42739002BCAD427390CF
:100620004280B76200009382820873900230970282
:1006300000009382629D93E2320073905230EFF09B
:100640001FD697020000938242CD7390123473003C
:1006500020309C4513F7070113F8F70001C7D84174
:100660003368E8008E2113F7F50F39C3184181462E
:10067000854E3D4F930F800293028004214E3396A6
:10068000DE00B3F8C50063111603939826003313F8
:100690001F011343F3FF3377E300B318180133E767
:1006A000E800639FF70550C98506E39AC6FD18C1A7
:1006B0001307F00F6375B70454412146854E3D4F33
:1006C000930F800293028004414EB398CE0033F71B
:1006D00015016392E8021317260001173313EF0088
:1006E0001343F3FFB376D3003317E800D98E639D2D
:1006F000F701232A15010506E319C6FD54C18280BE
:10070000E39457FA10C94DB7E39757FE2328150114
:10071000DDB70CC982804CC9828023A8A180828069
:10072000371702405C439146B18B6385D700A146E1
:100730006382D706B7177A00938707201CC1371644
:1007400002405C4237070020130707019183BD8BED
:10075000BA9794231C41B3D7D7005CC15442A182FD
:100760009D8ABA969422B3D6D70014C55442AD825E
:100770009D8A36971823B3D7E7005CC55842398362
:10078000937637001387418036971823B3D7E70253
:100790001CC982805C435843C166C983758FB7F614
:1007A000FF1F83A6C670BD8B890713961601634889
:1007B0000600C54601466392D702C94739A8894653
:1007C000638FD702BD46638ED702C146638ED702C0
:1007D000C54601466393D700C1471DEF3747024026
:1007E00003270780418B05C737177A0013070720B7
:1007F000B307F7021CC121D61C41858381B701468E
:100800006DBF0546B547D1BF0146BD47F9B737179C
:100810003D0013070790E9BFB7150240D85593165E
:10082000F700D85563DF060411833D8B930617004C
:1008300037177A00130707203357D70218C1D4554A
:10084000A182BD8A8DE295463307D702058318C180
:1008500037170240585714413D8B050733D7E6023E
:1008600018C1184171B785456394B600E546E9BFE4
:10087000BD456396B600D1463387E602C9BF8906F7
:10088000E5BF3D8B9306170037177A001307072043
:100890003357D702F1B799C5371702401C4F5D8D0A
:1008A00008CF8280B7170240984F1345F5FF798D26
:1008B00088CF8280EFF2DF931629F577FD17F58F49
:1008C000F621DA257971D58F1EA95625FD779387F4
:1008D000379FF58FD6212A842EC6D58F9625D58FA2
:1008E000B625D58F5EA55E29C207C18393F7F7CFE2
:1008F000D98F5EA968082D35B747014093870780D7
:10090000B245631EF402A2576547B387E7029841D8
:10091000930640060A07B3D7E70233D7D702B3F7E7
:10092000D7021207920793872703B3D7D702BD8B4D
:10093000D98FC207C1831EA445616FF0BF8D925746
:10094000E1B791C55E250967D98F5EA582805A25DA
:10095000F977FD17F98FD5BF93F5F51F4EA182806A
:100960004A211375F51F82800A216D8D3335A00051
:100970008280138781801C43938601823E95636B3E
:10098000D500B78600209386068063E5A60008C3DD
:100990003E858280FD57EDBF35713ECBB7070080A5
:1009A00093C7F7FF3ECE3EC8C1779387872032C5F5
:1009B00036C73AC942CD46CF3ECA9387C1802AC4C2
:1009C0002ACC884334012E862C0086DE36C2F520E0
:1009D000A24723800700F6500D61828001114AC8AA
:1009E00003A9850022CC52C45AC006CE26CA4EC6E0
:1009F00056C22E84328B368A63E82609DE2513F729
:100A0000074849C304408C495848AA8AB389B4406E
:100A10008D44B384E4020947B3C4E402138716008B
:100A20004E9763F3E400BA8493F70740ADCFA685F1
:100A30005685EF0090042A891DE1B14723A0FA00F2
:100A40005E247D5593E707045EA4F2406244D244DD
:100A50004249B249224A924A024B056182800C48BF
:100A60004E86B52D5E2493F7F7B793E707085EA48B
:100A70002328240144C84E99B384344123202401FF
:100A800004C4528963732A01528908404A86DA8570
:100A900001271C440145B38727411CC41C403E99D3
:100AA000232024015DB726865685EF00F0092A89A8
:100AB00061F10C485685052749B7DE25717126D3AB
:100AC0004AD14ECF06D722D552CD56CB5AC95EC792
:100AD00062C566C393F70708AA892E89B284B1C399
:100AE0009C49A1E39305000436C6412F2320A900A9
:100AF0002328A900B24615E1B14723A0F9007D558E
:100B0000BA502A549A540A59FA496A4ADA4A4A4B5C
:100B1000BA4B2A4C9A4C4D61828093070004232AD9
:100B2000F90093070002A30CF1029307000302DA15
:100B3000230DF10236CE930B5002971A0000938AD0
:100B40002A93054C294B26841C2099C36397770967
:100B5000B30C9440638D0C00E6862686CA854E85CC
:100B6000B53DFD576308F518D256E69636DA1C20D7
:100B700063820718FD579304140002D002D63ED2B8
:100B800002D4A301010682DC8C2015465685252B54
:100B900013841400825721E513F7070109C71307CF
:100BA0000002A301E10613F7870009C71307B0028B
:100BB000A301E10694201307A002638AE602B2575C
:100BC000268481462546182093051400130707FD47
:100BD0006372E6068DC63ED61DA00504B5B7330583
:100BE00055413315AC00C98F3ED0A28471BF724706
:100BF00093064700184336CE634707023AD61820BB
:100C00009307E002631DF70418309307A002631BEB
:100C1000F702F2470904138747009C433ACE63C1A9
:100C200007023ED22DA83307E04093E727003AD6CB
:100C30003ED0F1B7B387670385462E84BA9761B774
:100C4000FD57C5B7050402D28146814725461820C5
:100C500093051400130707FD6374E606F9F20C20F0
:100C60000D461715000013052581B12911CD9717E1
:100C70000000938767801D8D93070004B397A7003A
:100C8000025505045D8D2AD00C2019461705000079
:100C90001305C57E93041400230CB1022D2125C534
:100CA00097F7FFFF9387073695E70257F2471377C9
:100CB000071009CF91073ECED257D2973EDA61B5E1
:100CC000B387670385462E84BA9751B79D07E19B8A
:100CD000A107D5B7780897060000938666D04A86A4
:100CE0000C104E8597000000E7000000FD572A8A8F
:100CF000E314F5FC8357C9007D5593F70704E3918E
:100D000007E05255F5BB780897060000938646CD5C
:100D10004A860C104E85012AD1BF797156CA9C496A
:100D2000BA8A984522D426D24ECE52CC06D64AD084
:100D30005AC85EC6AA892E84B284368A63D3E70075
:100D4000BA879CC00347340419C385079CC01C4064
:100D500093F7070281C79C4089079CC003290400C0
:100D600013796900631A0900130B9401FD5B5C445D
:100D70009840998F634CF9041C408346340493F7E0
:100D80000702B336D000A5EB13063404D2854E8596
:100D9000829AFD576303F5041C4011469840998BD5
:100DA000544481446397C700B384E64063D304008E
:100DB00081441C4418486354F700998FBE9401493C
:100DC00069047D5B63982405014509A885465A8618
:100DD000D2854E85829A631E75017D55B25022548C
:100DE00092540259F249624AD24A424BB24B45618F
:100DF00082800509ADBF3307D40013060003A301A9
:100E0000C7040347540493871600A2978906A38159
:100E1000E7049DBF85462286D2854E85829AE30EE1
:100E200065FB050945B7797122D426D24AD04ECE4A
:100E300006D652CC56CA5AC8B689942D9307900646
:100E40003289AA842E8413863504638DF60263E208
:100E5000D706930780056385F61863EDD700638D89
:100E6000062093073004638EF60A930A24042301B4
:100E7000D404C9A0930730066385F60A9307400699
:100E8000E395F6FE1C40084393F6070893054500DA
:100E9000C5C61C410CC363D807001307D002B307B3
:100EA000F040A301E404970600009386A65D29475D
:100EB00065A8930700076381F61663E5D7029307D9
:100EC000E0066388F6189307F006E390F6FA0C4004
:100ED0001C4313F80508138547006307080608C379
:100EE0009C4385A893075007E383F6FE930780078A
:100EF0006388F61293073007E399F6F61C43D04156
:100F000081459386470014C383AA07005685652A46
:100F100001C53305554148C05C401CC8A301040409
:100F200061A81C43930A2404938647009C4314C37E
:100F30002301F4048547D5B793F607041C410CC37D
:100F4000B9DAC207C18781BF93F5050408C3C9D9BF
:100F50009E231307F0066386E60E9706000093862D
:100F600066522947A30104044C400CC463C5050024
:100F700008406D9908C099E3B28A89CDB28AB3F569
:100F8000E702FD1AB6958C212380BA00B3D5E7029B
:100F900063FFE70AA147631EF7001C40858B91CBD6
:100FA00058401C4863C7E70093070003A38FFAFE6D
:100FB000FD1A3306564110C84E87CA867000A285B6
:100FC0002685A13B7D5A631D450B7D55B2502254A9
:100FD00092540259F249624AD24A424B4561828098
:100FE000A382D504970600009386C6490C400843A7
:100FF00013F805081C411105630D080208C313F717
:10100000150001C793E505020CC04147A1FF0C4044
:1010100093F5F5FD0CC0B9B79C4193E707029CC15D
:1010200093078007A302F404970600009386C64640
:1010300075BF13F8050408C3E30308FCC207C183A6
:101040007DBF970600009386E643214721BFAE8708
:101050003DB794411C43CC4913F80608138547005B
:101060006306080008C39C438CC339A008C393F6E9
:1010700006049C43F5DA8EA323280400B28A2DBF10
:1010800014485686CA8526858299E30045F51C409A
:10109000898B8DE7B2474844E35AF5F23E853DB768
:1010A00085465686CA8526858299E30065F3050A3A
:1010B0005C443247998FE345FAFEE9BF014A930A3F
:1010C00094017D5BF5B793F5F50F2A966314C5007F
:1010D000014582801C21E38EB7FE0505C5BFB3C75D
:1010E000A5008D8B3307C50081E78D4763EDC700F1
:1010F000AA87637EE508942185078505A38FD7FE1F
:10110000E3EBE7FE828093763500AA8789CA9421B3
:1011100085078505A38FD7FE93F63700C5BF937665
:10112000C7FF138606FE63F0C70683A3050083A2EC
:10113000450083AF850003AFC50083AE050103AE54
:10114000450103A3850183A8C5019385450223A01A
:10115000770003A8C5FF23A2570023A4F70123A605
:10116000E70123A8D70123AAC70123AC670023AE58
:1011700017019387470223AE07FF75B79041910788
:10118000910523AEC7FEE3EBD7FEE3E6E7F68280E8
:1011900063F1A504B386C500637DD5029345F6FFD0
:1011A0008147FD176393F50082803387F60003487B
:1011B00007003387C7002A9723000701DDB733876D
:1011C000F50014233307F500850714A3E319F6FE91
:1011D00082808147E5BFCDC183A7C5FF411122C4ED
:1011E00006C626C21384C5FF63D307003E94AA84B3
:1011F000C12A938741819C4399EB2322040023AAAF
:1012000081802244B2402685924441015DAA637EDA
:10121000F40014403307D4006396E7009843DC439E
:10122000369718C05CC0E1BFBA87D84319C3E37DC5
:10123000E4FE94433386D700631F86001040B296C5
:1012400094C33386D700E31EC7FA10435843B296BF
:1012500094C3D8C37DB76375C400B1479CC055B76C
:101260001040B306C4006316D70014435843B29627
:1012700014C058C0C0C371B78280011126CA9384BC
:101280003500F19806CE22CC4AC84EC6A104B1471B
:1012900063F1F404B14463E0B4042A89152293870E
:1012A000418198433A8431E0938781819C4391E75F
:1012B00081454A85CD2023ACA180A6854A85E128B9
:1012C000FD5963173507B1472320F9004A85D52812
:1012D00029A0E3D204FCB1471CC10145F24062449D
:1012E000D2444249B249056182801C40858F63CE59
:1012F0000702AD4663F6F6001CC03E9404C031A060
:101300005C406312870223AAF1804A855D28130599
:10131000B4009307440061993307F54061D33A94D0
:10132000898F1CC065BF5CC3CDB722874040A5BF75
:10133000130435007198E30385FCB305A4404A8586
:101340009928E31D35FB41B799E1B2853DB70111FD
:1013500022CC06CE26CA4AC84EC6328419EAA53D1A
:101360000149F24062444A85D2444249B24905618A
:101370008280AE84AA89B9202689E37485FEA2857D
:101380004E85E53D2A8971DDA6852286893BA685A5
:101390004E859135F9B7411122C42A842E8523AE9A
:1013A000018006C6EFF0EFDCFD576317F500938769
:1013B000C1819C4391C31CC0B24022444101828040
:1013C0008280828083A7C5FF1385C7FF63D507008E
:1013D000AA959C413E9582804C454420436F6E7493
:1013E000726F6C3A2053656E64203078414120283A
:1013F0003137302920746F207475726E204F4E2C57
:10140000203078424220283138372920746F2074E8
:1014100075726E204F46460D0A0000004C45442070
:1014200069732063757272656E746C79204F4646DD
:101430000D0A0000526563656976656420627974FF
:10144000653A2000256400004C4544207475726E96
:101450006564204F4E0D0A004C4544207475726E31
:101460006564204F46460D0A00000000232D302BF6
:1014700020000000686C4C00656667454647000028
:1014800030313233343536373839414243444546BA
:10149000000000003031323334353637383961627C
:0814A0006364656600000000B2
:1014A800000000000000000001020304060708090C
:1014B80000000000010203040102030406070809F2
:1014C8000000000000000000000000000000000014
:1014D8000000000000000000000000000000000004
:1014E80000000000000000000000000000000000F4
:1014F80000000000000000000000000000000000E4
:1015080000000000000000000000000000000000D3
:1015180000000000000000000000000000000000C3
:1015280000D8B80502040608A0000020200000200A
:00000001FF
